:040000000C943D001F
:100004000C9400000C9400000C9400000C9400006C
:100014000C9400000C9400000C9400000C9400005C
:100024000C9400000C9400000C9400000C9400004C
:100034000C9400000C9400000C9400000C9400003C
:100044000C9400000C9400000C9400000C9400002C
:10005400000000003F0030005B004F0066006D00B0
:100064007D0007007F0067000400040054001300B3
:10007400600158000000F894EE27ECBBF1E0FBBFF0
:10008400EBBFE5BF8DE0A2E0BB27ED938A95E9F7CE
:1000940080E094E0A0E6ED930197E9F7ECE6F0E068
:1000A40085919591009761F0A591B5910590159072
:1000B400BF01F00105900D920197E1F7FB01F0CF2C
:1000C400EFE5EDBFE4E0EEBFC0E6D1E00C946A00DA
:1000D400EFE1E8BBE0E0E7BBE2BBEFE7E1BBE0E078
:1000E400E5BBE5E0E4BBB09903C04424552438D013
:1000F400B19904C0E1E0F0E02F0132D0B29904C01C
:10010400E2E0F0E02F012CD0B39904C0E3E0F0E08A
:100114002F0126D0B49922C06414750424F4002459
:10012400401450040CF409C0E1E0E5BBD201A61967
:10013400B70922D0E0E025D0EFCF4614570424F4C9
:100144000024401450040CF409C0E0E0E5BBD301E2
:10015400A419B50911D0E1E014D0EFCFC4CFFFCF7B
:10016400F201A0E6B1E0EE0FFF1FAE0FBF1FEC914E
:10017400E2BBA0E9B1E02AC0E0EDF7E014D0DF0172
:1001840025C0E5BB3201EFEFFFEF2F010895F19594
:10019400E195F0400895FA9FF02DEB9FF00DEA9F52
:1001A400E02DF10D089504D0F6DF0EF4F0DF08958C
:1001B400E894F7FF02C0EBDF6894B7FF06C0B1957F
:1001C400A195B04000F8039400FA0895109639F010
:1001D400A89584EF91E00197F1F71197C9F7089575
:00000001FF
