S01B000064657369676E5F6F7363696C6C6F73636F70652E7372656321
S113000034C4000052C40000DDC400002BC500004D
S113001078C500008FC50000ADC5000046C40000CF
S113002044C4000042C4000040C400003EC40000B8
S11300303CC400003AC4000038C4000036C40000C8
S113004034C4000032C4000030C400002EC40000D8
S11300502CC400002AC4000028C4000026C40000E8
S113006024C4000022C4000020C400001EC40000F8
S11300701CC400001AC4000018C4000016C4000008
S113008014C4000012C4000010C400000EC4000018
S11300900CC400000AC4000008C4000006C4000028
S11300A004C4000002C4000000C40000FEC3000039
S11300B0FCC30000FAC30000F8C30000F6C300004C
S11300C0F4C30000F2C30000F0C30000EEC300005C
S11300D0ECC30000EAC30000E8C30000E6C300006C
S11300E0E4C30000E50A5E0B190B620B430B510BD2
S11300F05B0B0F1115112C111D112C112C112C112E
S11301002C112C112C112C112C112C112C112C1103
S11301102C112C112C112C112C112C112C112C11F3
S11301202C112C112C112C112C112C112C110A1105
S11301302C112C112C112C112C112C112C112C11D3
S113014000112C112C112C112C112C112C112C11EF
S11301502C112C112C112211271107634236B79B45
S1130160D8A71A39685618AEBAAB558C1D3CB7CC13
S11301705763BD6DEDFD753EF6177231BF0000008B
S1130180803F08000000BE922449123EABAAAA2A6E
S1130190BECDCCCC4C3E00000080BEABAAAAAA3E89
S11301A000000000BF000000803F000000000008C5
S11301B04178D3BB4387D1133D190E3CC3BD428262
S11301C0AD2B3E68EC8276BED98FE1A93E4C80EF20
S11301D0FFBE01C4FF7F3F00000000002200250095
S11301E028002B002E0031003400020121002400DD
S11301F027002A002D00300033000101FFD0FFE06A
S1130200FFC1FFD13FC0FF14FFD23FC0FF14FFD096
S1130210FFFE01050700FF060115022720FFFF0668
S1130220FF06FF080050221656808080800080154B
S11302303353A0A0A002555550F850F8500255551C
S113024070A070287002465680902040901002459D
S11302505540A040A050251353808080122656405C
S11302608080808040122656804040404080123575
S113027055A040E040A00255552020F8202011331D
S113028053604080044151F0122252C0C0034454D0
S11302901020408012365640A0A0A0A0401236562E
S11302A040C0404040E00246566090102040F002BA
S11302B04656F010601090600246562060A0F02070
S11302C020024656F080E01090600246566080E0BE
S11302D0909060024656F01020204040024656603E
S11302E09060909060024656609090701060122565
S11302F055C0C000C0C00136566060006040801226
S113030035552040804020034353F000F01235550A
S1130310804020408012365640A0204000400246D3
S1130320566090B0B08060024656609090F0909015
S1130330024656E090E09090E0024656609080803D
S11303409060024656E090909090E0024656F0800D
S1130350E08080F0024656F080E0808080024656BD
S1130360609080B090700246569090F090909012F9
S11303703656E040404040E00246561010101090BF
S11303806002465690A0C0C0A0900246568080806D
S11303908080F002465690F0F0909090024656907D
S11303A0D0D0B0B0900246566090909090600246D3
S11303B056E09090E0808001475760909090D06024
S11303C010024656E09090E0A0900246566090409D
S11303D0209060123656E04040404040024656901D
S11303E09090909060024656909090906060024683
S11303F056909090F0F090024656909060609090E5
S1130400123656A0A0A0404040024656F0102040AC
S113041080F0123656E080808080E00344548040AF
S11304202010123656E020202020E016325240A040
S1130430024151F016225280400244547090B05050
S11304400246568080E09090E002345460808060E0
S113045002465610107090907002445460B0C06010
S1130460024656205040E04040014555709060805F
S1130470700246568080E09090901236564000C03C
S11304804040E01137572000202020A0400246566B
S11304908080A0C0A090123656C040404040E00288
S11304A04454A0F09090024454E09090900244543C
S11304B060909060014555E09090E0800145557052
S11304C090907010024454E090808002445470C0B4
S11304D030E00246564040E04040300244549090A0
S11304E09070123454A0A0A0400244549090F0F0B4
S11304F00244549060609001455590905020400211
S11305004454F02040F01236562040C0404020228F
S1130510165680808080808012365680406040402D
S11305208006425250A0FFFFFFFFFFFFFFFFFFFFC7
S1130530FFFFFFFFFFFFFFFFFFFFFFFFFFFFFFFFC7
S1130540FFFFFFFFFFFFFF080050221656800080C8
S11305508080800146562070A0A07020024555304E
S113056040E040B00255558870507088123656A04D
S1130570A040E0404022155580800080801137570C
S11305806080C0A06020C0173151A0015757708807
S1130590A8C8A8887005335360A0600353534890DB
S11305A048034252F010143151E00157577088E863
S11305B0C8C88870074151F015335340A040025613
S11305C0562020F82020F8142454C04080C014245D
S11305D054C0C040C01622524080014555909090AE
S11305E0E08002465670D0D0505050142252C0C001
S11305F0112252408014345440C040E0053353402B
S1130600A040035353904890014757808080903016
S11306107010014757808080B0102030014757C0C8
S1130620C040D030701012365640004080A04002C6
S11306304656609090F09090024656609090F090EC
S113064090024656609090F09090024656609090CA
S1130650F09090024656906090F09090024656605A
S11306606090F0909002465670A0B0E0A0B00147B0
S11306705760908080906040024656F080E0808011
S1130680F0024656F080E08080F0024656F080E0AA
S11306908080F0024656F080E08080F0123656E00A
S11306A040404040E0123656E040404040E01236C0
S11306B056E040404040E0123656E040404040E0C2
S11306C0024656E050D05050E0024656B090D0B0AA
S11306D0B0900246566090909090600246566090AA
S11306E090909060024656609090909060024656BA
S11306F06090909090600246569060909090600256
S113070044549060609002465670B0B0D0D0E0027D
S1130710465690909090906002465690909090909B
S113072060024656909090909060024656900090D9
S1130730909060123656A0A0A040404002465680D9
S1130740E090E080800246566090A09090A002461F
S11307505640207090B05002465620407090B050E1
S113076002465620507090B05002465650A07090E9
S1130770B05002465650007090B050024656606029
S11307807090B05002445470B0A070113555608020
S1130790806040024656402060B0C0600246562049
S11307A04060B0C06002465640A060B0C0600246DF
S11307B056A00060B0C0601236568040C04040E091
S11307C01236564080C04040E012365640A0C04029
S11307D040E0123656A000C04040E0024656403089
S11307E06090906002465650A0E090909002465669
S11307F040206090906002465620406090906002D5
S1130800465660006090906002465650A0609090FA
S1130810600246565000609090600245556000F0BA
S1130820006002445470B0D0E002465640209090DC
S11308309070024656204090909070024656600098
S113084090909070024656500090909070014757D7
S11308502040909050204001465680E09090E080E7
S11308600147575000909050204011241FBECFEFF5
S1130870D1E2DEBFCDBF00E00CBF12E0A0E0B2E0E9
S1130880E6EFFAE200E00BBF02C007900D92AA3334
S1130890B107D9F725E0AAE3B2E001C01D92A9345B
S11308A0B207E1F7E0D30C947915AACBEAE7F0E0BC
S11308B0808186688083808186788083EBE7F0E09E
S11308C08081807B8083ECE7F0E080818076808388
S11308D080818064808380818062808380B7806827
S11308E080BF0895883028F0EBE7F0E090819860AD
S11308F090838770ECE7F0E09081892B80830895E2
S1130900EAE7F0E0808180648083089580917A0032
S113091084FF02C081E0089580E008958091790009
S11309200895EAE7F0E0808180618083EBE7F0E0FE
S11309308081877F8083ECE7F0E08081807E808304
S11309400895CF93CFDFDCDFE1DF8823E9F3E6DF2F
S1130950C82FE7DF8C2FCF9108958AB1817F8AB9A0
S11309608BB18E608BB98DB18F7C8DB98EB1806364
S11309708EB9E7E0F1E080818E7F8083E8E0F1E0EA
S113098080818E7F80830895F894E9E6F0E0808189
S11309908862808380818B7E808380818F73808353
S11309A0EAE6F0E080818A60808380818A7F8083A8
S11309B08DB38E638DBB78940895CFDFE5DF76DF4A
S11309C05CC308951F920F920FB60F9211240BB6B9
S11309D00F922F933F934F935F936F937F938F93D4
S11309E09F93AF93BF93EF93FF9360910402709131
S11309F00502809106029091070220E030E040E079
S1130A005FE30E94C2116093040270930502809315
S1130A1006029093070220E030E040E050E40E9498
S1130A207513181664F480E090E0A0E0BFE38093AF
S1130A30040290930502A0930602B0930702FF916B
S1130A40EF91BF91AF919F918F917F916F915F9142
S1130A504F913F912F910F900BBE0F900FBE0F90AF
S1130A601F9018951F920F920FB60F9211240BB678
S1130A700F922F933F934F935F936F937F938F9333
S1130A809F93AF93BF93EF93FF9320E030E040E058
S1130A905FE36091040270910502809106029091D7
S1130AA007020E94C11160930402709305028093AF
S1130AB006029093070220E030E0A9010E9426126A
S1130AC0181664F080E090E0A0E0BFE38093040295
S1130AD090930502A0930602B0930702FF91EF9151
S1130AE0BF91AF919F918F917F916F915F914F9142
S1130AF03F912F910F900BBE0F900FBE0F901F9040
S1130B0018951F920F920FB60F9211248F939F93F3
S1130B1081E090E090933D0280933C0289B1109271
S1130B203D0210923C029F918F910F900FBE0F9047
S1130B301F9018951F920F920FB60F9211242F93A6
S1130B408F939F9380913A0290913B0201979093E7
S1130B503B0280933A02813E9F4F24F410923B0261
S1130B6010923A029F918F912F910F900FBE0F9088
S1130B701F9018951F920F920FB60F9211248F9306
S1130B809F9380913A0290913B02019690933B028D
S1130B9080933A02809724F010923B0210923A021A
S1130BA09F918F910F900FBE0F901F90189582E127
S1130BB092E0BCD3C0D32FE340E860E080E094D35C
S1130BC046E152E060E280E2AAD3B9D38111F3CFC7
S1130BD00895CF92DF92EF92FF92CF93DF93C0E01C
S1130BE0D0E056C080E0ADDEFE01EE0FFF1FE057FF
S1130BF0FC4F90E091838083C0900402D090050262
S1130C00E0900602F090070220E030E040E05FE36D
S1130C10C701B6010E942612811107C08FEE90E031
S1130C200197F1F700C0000032C020E030E040E856
S1130C305FE3C701B6010E942612811107C087EB4A
S1130C4091E00197F1F700C0000021C020E030E0FE
S1130C5040EC5FE3C701B6010E942612811107C070
S1130C608FE792E00197F1F700C0000010C020E088
S1130C7030E040E050E4C701B6010E942612811121
S1130C8006C087E493E00197F1F700C000002196C5
S1130C90C03CD1050CF4A6CFDF91CF91FF90EF902B
S1130CA0DF90CF90089510928B0310928A031092D4
S1130CB0C5021092C40280E090E01FC0FC01EE0F58
S1130CC0FF1FE057FC4F208131814091C4025091B5
S1130CD0C502421753072CF03093C5022093C40277
S1130CE00BC040918A0350918B032417350724F0DD
S1130CF030938B0320938A030196803C9105F4F290
S1130D0060918A0370918B032091C4023091C502D3
S1130D10CB01820F931F99230CF401969595879527
S1130D2090938F0380938E03621B730B072E000C2A
S1130D30880B990B0E94C51220E030E040EA50E491
S1130D400E94791320E030E04FE753E40E942A1216
S1130D506093860370938703809388039093890339
S1130D60089580E090E021C0FC01EE0FFF1FE057E2
S1130D70FC4F4081518120918E0330918F034217A3
S1130D80530794F4AC014F5F5F4FFA01EE0FFF1F5E
S1130D90E057FC4F60817181621773072CF0509308
S1130DA0BF024093BE0204C00196803C9105E4F268
S1130DB08091BE029091BF0201961FC0FC01EE0F0C
S1130DC0FF1FE057FC4F4081518120918E033091E9
S1130DD08F034217530784F4FC013196EE0FFF1F73
S1130DE0E057FC4F40815181421753072CF09093F8
S1130DF08D0380938C0308950196803C9105F4F251
S1130E000895CF92DF92EF92FF9260918C037091DC
S1130E108D038091BE029091BF02681B790B072E4F
S1130E20000C880B990B0E94C5126B017C0120E019
S1130E3030E0A9010E9475131816ECF42091040205
S1130E40309105024091060250910702C701B60194
S1130E500E9479139B01AC0160E070E080E091E4B2
S1130E600E942A126093C0027093C1028093C2024E
S1130E709093C30208C01092C0021092C102109253
S1130E80C2021092C302FF90EF90DF90CF900895BA
S1130E900ADF67DFB6CF089520E030E01FC0F90114
S1130EA0EE0FFF1FE057FC4F8081918140918E032C
S1130EB050918F03481B590BCA0199230CF40396D4
S1130EC095958795959587958096F901EE0FFF1F67
S1130ED0EA53FD4F918380832F5F3F4F20363105C6
S1130EE0F4F208950F931F93CF93DF932FE34FE50D
S1130EF060E080E0F9D12FE340E360E080E3FFD1DC
S1130F0020E24FE560E280E0FAD1C0E0D0E006C024
S1130F1021E24C2F6FE18C2FF2D12896C136D105F6
S1130F20BCF3C0E0D0E006C02C2F41E36C2F8FE26D
S1130F30E6D12896C034D105BCF308E010E00CC01B
S1130F406C2F802FE6D1289602C0C8E0D0E0C034D0
S1130F50D105B4F3085F1F4F00361105B4F3DF91D8
S1130F60CF911F910F910895CF93DF9380E090E08C
S1130F7015C0EC012196FE01EE0FFF1FEA53FD4F51
S1130F80208160913A02FC01EE0FFF1FEA53FD4FEE
S1130F909081260F690F482FB2D1CE01803691057A
S1130FA044F3DF91CF91089540E252E067E080E698
S1130FB0B6D16EE080E6CAD0609104027091050259
S1130FC0809106029091070243E050E069D147E224
S1130FD052E067E180E6A3D16EE180E6B7D060918C
S1130FE0000270910102809102029091030243E099
S1130FF050E056D14DE252E068E280E690D16FE2D3
S113100080E6A4D060918603709187038091880361
S11310109091890343E050E043D141E352E06FE211
S11310208BE77DD143E352E067E380E678D16EE35A
S113103080E68CD06091C0027091C1028091C2029E
S11310409091C30243E050E02BC1089574D14ADF6C
S11310508BDFAADF74D18111FACF0895BADD18DFCE
S11310601BDFF4CF0895A9DCA2DDF8DFFECFE1E6B3
S1131070F0E080E88083108208957F928F929F929F
S1131080AF92BF92CF92DF92EF92FF920F931F9392
S1131090CF93DF93ECDF65E082E038D3782E61E014
S11310A082E034D3982E60E082E030D3B82E64E03E
S11310B082E02CD3D82E63E082E028D3F82E62E0BD
S11310C082E024D3182F67E080E020D3D82F66E095
S11310D080E01CD3882E65E080E018D3A82E64E05D
S11310E080E014D3C82E63E080E010D3E82E62E0E1
S11310F080E00CD3082F61E080E008D3C82F60E0C3
S113110080E004D37F929F92BF92DF92FF921F935D
S1131110DF932C2F482F68E072E080E195E051D7EF
S11311208DB79EB707960FB6F8949EBF0FBE8DBFBE
S1131130DF91CF911F910F91FF90EF90DF90CF90AF
S1131140BF90AF909F908F907F90089580934705B4
S11311506093480508956150710920E030E00EC0A5
S1131160DC01A20FB31F4C91FC01E60FF71F508165
S11311705C9340832F5F3F4F6150710926173707F7
S11311807CF308950F931F93CF93DF938B019A0100
S1131190C0E0D0E00CC0F801EC0FFD1F6AE070E085
S11311A00E944115805D8083862F972F219600979A
S11311B091F706C0F801EC0FFD1F80E380832196B0
S11311C0C217D307BCF3BE01C801C5DFF801EC0F99
S11311D0FD1F1082CE01DF91CF911F910F910895D1
S11311E04F925F926F927F928F929F92AF92BF9233
S11311F0EF92FF920F931F93CF93DF932B013C0148
S11312007A0189010E9492124B015C01072E000CA5
S1131210880B990B0E94C5129B01AC01C301B2015A
S11312200E94C1112B013C0140E050E0B701C40110
S1131230A9DFEC010115110521F1F701E80FF91FF0
S11312408EE28083B801012E000C880B990B0E945A
S1131250C5129B01AC0160E070E080E291E40E9461
S1131260DC139B01AC01C301B2010E9479132196E6
S1131270CE0DDF1D0E949212DC01CB01A801BE013C
S113128081DFDF91CF911F910F91FF90EF90BF907D
S1131290AF909F908F907F906F905F904F90089544
S11312A0CF93DF93CDB7DEB7C058D1090FB6F8940A
S11312B0DEBF0FBECDBF9A01AE014F5F5F4F90DF1F
S11312C09E012F5F3F4F409148056091470580E1A3
S11312D095E06FD4C058DF4F0FB6F894DEBF0FBE51
S11312E0CDBFDF91CF9108950F93022F242F462F66
S11312F0682F80E195E00E9492110F9108950F9359
S1131300022F242F462F682F80E195E0CDD40F9132
S11313100895462F682F80E195E00FC608959A013D
S1131320462F682F80E195E044C40895BC0180E114
S113133095E0A9C4089580E195E0EBC5089580E1A6
S113134095E0ECC508950F93FC01040F015096A994
S113135084A9941730F0081750F4041750F481E06E
S11313600DC0081740F0041740F481E007C081E085
S113137005C080E003C080E001C080E08823C9F09C
S1131380260F215095A983A9961730F0281750F4F9
S1131390261750F481E00DC0281740F0261740F4BA
S11313A081E007C081E005C080E003C080E001C0A7
S11313B080E00F910895DB011496ED91FC9115974F
S11313C020E030E061E019950895DB011496ED9179
S11313D0FC91159720E030E063E019950895DB0156
S11313E01496ED91FC91159720E030E040E064E024
S11313F019950895DB011496ED91FC91159720E061
S113140030E041E064E019950895DB011496ED9114
S1131410FC91159720E030E062E019950895DB0116
S11314201496ED91FC91159720E030E065E0199554
S11314300895DB011496ED91FC91159766E01995DA
S11314400895CF92DF92EF92FF920F931F93CF9361
S1131450DF936C017B018A01D0E0F801C491D111C2
S11314600AC0CF3F09F444C04C2FB701C601D7DFEF
S1131470811145C048C0CF3F49F44C2FB701C60184
S1131480CEDF882309F43FC0D0E039C0CE3F09F451
S113149039C0C03F78F5C03E38F04C2F4F70B701CB
S11314A0C601B3DFD0E02BC0C03D38F04C2F4F70E5
S11314B0B701C6018ADFD0E022C0C03C80F0B7018A
S11314C0C6018DDFC295C07FCE5FD0E0CE017BD157
S11314D0B701C6018FDFCE0176D1D0E010C0CE3B7C
S11314E058F4CC235CF08C2F90E06DD1D0E007C091
S11314F0D1E005C0D0E003C0D0E001C0D0E00F5F70
S11315001F4FABCF81E0DF91CF911F910F91FF90DF
S1131510EF90DF90CF9008950F931F93CF938C019A
S1131520C62F462F417065E045D1C6954C2F4170BA
S113153066E0C8013FD1C6954C2F417067E0C801F1
S113154039D1C6954C2F417068E0C80133D1C69596
S11315504C2F417069E0C8012DD1C6954C2F4170C4
S11315606AE0C80127D1C6954C2F41706BE0C801D1
S113157021D14C2F46956CE0C8011CD141E064E0B8
S1131580C80118D129D140E064E0C80113D125D1A4
S113159024D1CF911F910F910895CF92DF92EF92B2
S11315A0FF920F931F93CF937C01C42F8901862F41
S11315B090E0FC013197E730F10508F086C08827F8
S11315C0EE58FF4F8F4F0C9454156DE0C701EAD0CD
S11315D040E06DE0C701EED065E0C701E3D066E00E
S11315E0C701E0D067E0C701DDD068E0C701DAD009
S11315F069E0C701D7D06AE0C701D4D06BE0C70166
S1131600D1D06CE0C701CED064E0C701CBD062E09A
S1131610C701C8D063E0C701C5D061E0C701C2D02B
S113162041E062E0C701C6D041E063E0C701C2D037
S11316304CC0411109C041E062E0C701BBD041E0A8
S113164063E0C701B7D041C0413049F440E062E0F3
S1131650C701B0D041E063E0C701ACD036C042302E
S113166049F441E062E0C701A5D040E063E0C7016E
S1131670A1D02BC040E062E0C7019CD040E063E011
S1131680C70198D022C0642FC70146DF1EC068017D
S11316908FEFC81AD80AF8016081C7013DDFC15035
S11316A08601C111F4CF11C0F8016491C70134DF80
S11316B00F5F1F4FC150C111F7CF07C061E0C701D1
S11316C079D003C060E0C70175D081E0CF911F914C
S11316D00F91FF90EF90DF90CF900895CF93DF9319
S11316E01F921F92CDB7DEB770E0660F771F680FA9
S11316F0791F42E050E0CE0101960E947015898165
S11317009A810F900F90DF91CF910895880F880FE1
S1131710880F860F0895CF93C82F682F6695669516
S113172066958CEE91E0DADFFC014081C77021E020
S113173030E002C0220F331FCA95E2F7242B208326
S1131740CF910895CF93DF93C82FD62F682F669536
S1131750669566958CED91E0C1DFD11111C05FB73C
S1131760F894FC014081C77021E030E002C0220FF0
S1131770331FCA95E2F72095242320835FBF0FC04F
S11317804FB7F894FC015081C77021E030E002C0EB
S1131790220F331FCA95E2F7252B20834FBFDF9119
S11317A0CF910895860F911DFC0183A18F3F09F00D
S11317B0B2CF0895860F911DFC0183A18F3F11F0D4
S11317C0642FC0CF089505C0E8EFF0E03197F1F73A
S11317D001970097C9F70895089582E090E0019772
S11317E0F1F70895AF92BF92CF92DF92FF920F93D9
S11317F01F93CF93DF938C01EB01F42E69018AE0F0
S1131800481721F0E5E14E1751F04EC04FEFC801E3
S1131810D2DD4CEF51E0BE01C80113DE45C0AA8001
S1131820BB8040E0C801F1DD42E0BE01C801CDDD6E
S1131830F5014481486BBE01C801F1DD40E4BE01FD
S1131840C801EDDD41E0BE01C801DFDDF5012681FF
S1131850378140E4BE01C801ECDD40E0BE01C801AF
S1131860B4DD40E0BE01C801D0DD41E0BE01C801E5
S1131870ACDDF5014481486BBE01C801D0DD40E414
S1131880BE01C801CCDD41E0BE01C801BEDDF501E9
S113189026813781205C3F4F40E4BE01C801C9DD89
S11318A040E0BE01C80191DD96014F2DBE01C80183
S11318B094D4DF91CF911F910F91FF90DF90CF903F
S11318C0BF90AF900895860F911DFC0184910895F7
S11318D0FC01E60FF11D849190E03196982F882742
S11318E0E4918E0F911D089560E0EDCF0895FCDF23
S11318F0882311F0823011F486E0089583E008957E
S1131900CF93DF93EB01F3DF9E01280F311DC90153
S1131910DF91CF9108950F931F93CF93DF938C01A1
S1131920EB01DC0114968D919C911597DDDF8823E2
S113193011F08230E9F4FE018491D80153968C931E
S113194053973196E4915496EC935497FE01339651
S1131950E4915096EC935097FE013496E49151969D
S1131960EC935197FE013596E4915296EC9321C085
S1131970FE018491982F9F709250D80152969C93A7
S1131980529782958F7051968C9351973196E4912A
S11319908E2F8F7054968C935497E295EF705396D4
S11319A0EC935397FE013296E491E295EF705096D2
S11319B0EC93DF91CF911F910F910895FC01108A50
S11319C0138A148A118A128A089580E0089565E0C2
S11319D07ACF089566E07CCF089568E079CF0895C2
S11319E06AE071CF08956BE06ECF08956CE06BCF21
S11319F008956DE068CF08956EE065CF08956FE0B7
S1131A0062CF089560E15FCF0895BF92CF92DF92D5
S1131A10EF92FF920F931F93CF93DF937C01D62E07
S1131A20FC01C481D581CE015FDF182FF7018481C9
S1131A3095815DDFC82E113019F0BB24BA9404C01F
S1131A400F2EFFE0BF2EF02DF70184819581C8DFB2
S1131A50182FF70184819581C6DF082FF70184814F
S1131A609581BBDFF0E6FD1530F4009721F0C80F37
S1131A70D91F11E60EC0F70184819581ABDFF0E434
S1131A80FD1530F4009721F0C80FD91F11E401C0EF
S1131A9061960D1528F4C70191DF80E090E022C023
S1131AA00117E0F0FE0184918F3F11F4219612C0DA
S1131AB01D1106C0BE01C7012EDF8C2F9D2F12C041
S1131AC0FE013296E491EB218C2D90E08E0F911D56
S1131AD0C80FD91F101711F01F5FE4CFC7016EDFC5
S1131AE080E090E0DF91CF911F910F91FF90EF90F4
S1131AF0DF90CF90BF9008958F929F92AF92BF9244
S1131B00CF92DF92EF92FF920F931F93CF93DF93C5
S1131B106C01162FC42F622F78DF009709F43BC0A5
S1131B20BC01F60184819581EBDE7C01F601D38949
S1131B309488A188A10E82891C2F181B1150191991
S1131B401F5F092D2D2F412F6A2DC601FCDB81114A
S1131B5003C0F601808920C0D95FBD2EB694B69427
S1131B60B694812C13C0F701049120E0412F6D2F0E
S1131B70C601EBD1FFEFEF1AFF0AD85FCF5F02C0B7
S1131B80DA2DC0E0CB1578F31F5F83948914C0F37A
S1131B90F601808901C080E0DF91CF911F910F9100
S1131BA0FF90EF90DF90CF90BF90AF909F908F9079
S1131BB00895CF92DF92FF920F931F93CF93DF93F9
S1131BC06C01162FF42EE901DC015596ED91FC9180
S1131BD056971995F80E00E007C04F2D612FC601E6
S1131BE08BDF180F080F219628812111F6CF802F43
S1131BF0DF91CF911F910F91FF90DF90CF900895C7
S1131C00CF93DF93EC018C819D81009799F12F890B
S1131C10211107C0DCDE888F8C819D81E7DE898FEE
S1131C200FC0213039F4EBDE888F8C819D81EADE90
S1131C30898F06C0DEDE888F8C819D81DDDE898FF1
S1131C40888D298D082E000C990B821B910927FD84
S1131C5093959C014A8D403461F0849F9001112436
S1131C600024220F331F001C220F331F001C232FBC
S1131C70302D2B8FDF91CF91089525EE3CE0FC01B0
S1131C80368B258B0895CF93DF93FC012481358116
S1131C902617370731F0EC0175836483B1DFCE0179
S1131CA0ECDFDF91CF910895AF92BF92CF92DF9294
S1131CB0EF92FF920F931F93CF93DF935C01C62F94
S1131CC0142FF22E261718F4E62EE21A02C0E22E82
S1131CD0E61A011718F4C12EC01A02C0C02EC11A88
S1131CE0EC1428F08C2DCE2CE82ED12C08C08F2D8E
S1131CF0F02E082F8C2FC12F182FDD24D394FC161F
S1131D0030F4812F102F082F8C2FCF2DF82EDC2D9F
S1131D10D695101710F401E001C00FEF8FEFF81201
S1131D2012C0FA9410C0D11005C0412F6C2FC50108
S1131D3004D104C04C2F612FC501FFD0DE1912F469
S1131D40100FDC0DCF5FFC1670F7DF91CF911F9160
S1131D500F91FF90EF90DF90CF90BF90AF900895D8
S1131D60DB01ED91FC91199508950F931F93CF9387
S1131D70DF93EC018B01E9A9FAA982E0199520E02F
S1131D8030E04AE0B801CE01EBDF182FE9A9FAA947
S1131D9083E01995E9A9FAA980E01995812FDF91CB
S1131DA0CF911F910F9108950F931F93CF93DF93BA
S1131DB0EC018B01E9A9FAA982E01995E9A9FAA92C
S1131DC081E0199520E030E044E1B801CE01C8DF9C
S1131DD09E012D5C3F4F47E1B801CE01C1DFE9A967
S1131DE0FAA980E01995DF91CF911F910F91089581
S1131DF0EF92FF921F93CF93DF93EC017B01E9A94C
S1131E00FAA982E01995E9A9FAA981E0199520E0D7
S1131E1030E045E1B701CE01A3DF182F882339F064
S1131E209E012D5C3F4F47E1B701CE0199DFE9A93F
S1131E30FAA980E01995812FDF91CF911F91FF902E
S1131E40EF900895522F9C01245E3F4FFC01448F74
S1131E50558F42E385CF0895EF920F93522F9C0143
S1131E60245E3F4FFC01448F558F078FE68E4BE372
S1131E7077DF0F91EF900895CF93DF931F92CDB743
S1131E80DEB79E012F5F3F4F46E46ADF89810F90E2
S1131E90DF91CF910895CF93DF931F92CDB7DEB733
S1131EA09E012F5F3F4F47E45BDF89810F90DF91F5
S1131EB0CF91089520E030E048E452CF0895CF93C5
S1131EC0DF93EC016A817B81D7DF88836A817B8120
S1131ED0CE01E1DF89836A817B81CE01EBDF8B87D1
S1131EE09E012D5C3F4F6A817B8147E1CE0138DF43
S1131EF0DF91CF910895CF93DF93EC016A817B81C9
S1131F0034DF882319F0CE01DADF81E0DF91CF914D
S1131F100895FC016281738147CF0895CF93DF93C5
S1131F20EC01EE85FF85309709F019956A817B8174
S1131F30CE015EDFDF91CF910895362F242FFC016F
S1131F4062817381432F7ECF0895EF920F93362FD2
S1131F50FC0162817381E02E022F242F432F7CDF4A
S1131F600F91EF900895FC0160A30895CF93DF9340
S1131F70EC011D821C821F821E82198681E08887E3
S1131F8082E28A871F861E8680E006C0FE01E80F73
S1131F90F11D9FEF93A38F5F8E30C0F361E0CE01FC
S1131FA0E2DFCE016ADE81E08F8B188E198E80E429
S1131FB08A8F1B8E80EC91E19AAB89ABDF91CF9134
S1131FC008954F925F926F927F928F92AF92CF92C9
S1131FD0EF92FF920F931F93CF93DF93CDB7DEB7AA
S1131FE03C012B01F42E122FC1DFF30153824282F4
S1131FF0F0A611A702A7E3A6C4A6A5A686A689896A
S113200087A78A8987A38B8985A38C8986A38D89D1
S113201084A38E8980AB8F8983A3C3016CDFDF9196
S1132020CF911F910F91FF90EF90CF90AF908F9031
S11320307F906F905F904F900895FC011282808191
S11320408150838314820895FC0120818281820F50
S113205082839181891760F484818F5F8483838173
S1132060820F891710F08FEF890F838381E0089521
S113207080E00895DC011696ED91FC911797159672
S11320808C919F01280F311DC901108231968E1742
S11320909F07D9F70895FC01238131E0261708F43E
S11320A030E0FC01828191E0481708F490E021E0DF
S11320B0461708F020E0832F89239223982B832F3F
S11320C08223892B0895DC01FB01108212968C91E6
S11320D01297818315968C9115978150828313965C
S11320E08C9183830895FB0131812381213019F080
S11320F0233021F006C048E0430F04C0432F38507A
S113210001C0432F632FC7CF0895DC011696ED91CC
S1132110FC91179712968C91481B477081E090E0D0
S113212002C0880F991F4A95E2F7E60FF11D22239A
S113213021F09081892B8083089580959081892353
S113214080830895FB014181FC012281421768F0DC
S11321502381241750F0FB013081FC0125813217C3
S113216020F4FB012481632FD0CF0895DF92EF92F6
S1132170FF920F931F93CF93DF937C01EB011A819E
S11321808B81813041F090F0823049F0833051F0FE
S1132190D12C00E00DC0DD24D39400E009C0D12C83
S11321A00FEF06C0DD24DA9400E002C0D12C01E078
S11321B011231CF4BE01C701C5DF8881800F888309
S11321C089818D0D8983110F99F7DF91CF911F912B
S11321D00F91FF90EF90DF9008950F931F93CF938B
S11321E0DF93FB01C281D38150E0FA017497E43399
S11321F0F10590F589018827E758FF4F8F4F54C4A4
S1132200B901CE0170DF882349F1B801CE01AEDFF8
S113221081E025C0B901CE0195DF81E020C0CE0167
S113222029DFCE010ADF81E01AC0CE010DDF882349
S1132230B1F0CE011FDF81E012C0B901CE0143DF4E
S113224081E00DC08D81F901808381E008C089811E
S1132250F901808381E003C081E001C081E0DF9166
S1132260CF911F910F910895EF92FF920F931F93B7
S1132270CF93DF937C01D62F142FC22F08C00FEF0A
S113228020E0412F6D2FC70160DEC850D85FC830F1
S1132290B0F7CC2389F087E0C827CF5FC7708FEFF2
S11322A090E002C0880F991FCA95E2F7082F20E03A
S11322B0412F6D2FC70149DEDF91CF911F910F91FF
S11322C0FF90EF900895EF92FF920F931F93CF9397
S11322D0DF937C01162FD42FC22F08C00FEF21E00B
S11322E04D2F612FC70131DEC850D85FC830B0F719
S11322F0CC2389F087E0C827CF5FC7708FEF90E0C9
S113230002C0880F991FCA95E2F7082F21E04D2FCC
S1132310612FC7011ADEDF91CF911F910F91FF90BA
S1132320EF900895DF92EF92FF920F931F93CF9354
S1132330DF937C01D62F142FD22E05D88823C1F029
S11323402D2D412F6D2FC7018FDF202F412F6D2F92
S1132350C701B9DF6D2F6D0D6150202F412FC701CB
S1132360B2DF412F400F41502D2D6D2FC7017CDF6F
S1132370DF91CF911F910F91FF90EF90DF9008951F
S113238008955058BB27AA270ED075C166D130F0E6
S11323906BD120F031F49F3F11F41EF45BC10EF4B5
S11323A0E095E7FB51C1E92F77D180F3BA176207B3
S11323B073078407950718F071F49EF58FC10EF426
S11323C0E0950B2EBA2FA02D0B01B90190010C0141
S11323D0CA01A0011124FF27591B99F0593F50F459
S11323E0503E68F11A16F040A22F232F342F4427B1
S11323F0585FF3CF469537952795A795F0405395A9
S1132400C9F77EF41F16BA0B620B730B840BBAF078
S11324109150A1F0FF0FBB1F661F771F881FC2F7E3
S11324200EC0BA0F621F731F841F48F487957795F7
S11324306795B795F7959E3F08F0B3CF9395880FAE
S113244008F09927EE0F979587950895D9D008F449
S113245081E008950CD00FC107D140F0FED030F0D8
S113246021F45F3F19F0F0C0511139C1F3C014D108
S113247098F39923C9F35523B1F3951B550BBB2747
S1132480AA2762177307840738F09F5F5F4F220FF4
S1132490331F441FAA1FA9F333D00E2E3AF0E0E8ED
S11324A030D091505040E695001CCAF729D0FE2F39
S11324B027D0660F771F881FBB1F261737074807CB
S11324C0AB07B0E809F0BB0B802DBF01FF27935881
S11324D05F4F2AF09E3F510568F0B6C000C15F3FD0
S11324E0ECF3983EDCF3869577956795B795F79569
S11324F09F5FC9F7880F911D9695879597F9089561
S1132500E1E0660F771F881FBB1F621773078407FC
S1132510BA0720F0621B730B840BBA0BEE1F88F70B
S1132520E095089504D06894B111D9C00895BCD041
S113253088F09F5790F0B92F9927B751A0F0D1F0A8
S1132540660F771F881F991F1AF0BA95C9F712C032
S1132550B13081F0C3D0B1E00895C0C0672F782FA7
S11325608827B85F39F0B93FCCF38695779567959E
S1132570B395D9F73EF490958095709561957F4F0A
S11325808F4F9F4F0895E89409C097FB3EF49095B0
S11325908095709561957F4F8F4F9F4F9923A9F038
S11325A0F92F96E9BB279395F695879577956795C7
S11325B0B795F111F8CFFAF4BB0F11F460FF1BC00B
S11325C06F5F7F4F8F4F9F4F16C0882311F096E99E
S11325D011C0772321F09EE8872F762F05C066234C
S11325E071F096E8862F70E060E02AF09A95660F05
S11325F0771F881FDAF7880F9695879597F90895BE
S1132600990F0008550FAA0BE0E8FEEF16161706FF
S1132610E807F907C0F012161306E407F50798F067
S1132620621B730B840B950B39F40A2661F0232B80
S1132630242B252B21F408950A2609F4A140A695FC
S11326408FEF811D811D089597F99F6780E870E0E1
S113265060E008959FEF80EC089500240A94161614
S1132660170618060906089500240A94121613067C
S1132670140605060895092E0394000C11F488230A
S113268052F0BB0F40F4BF2B11F460FF04C06F5F26
S11326907F4F8F4F9F4F089557FD9058440F551FFC
S11326A059F05F3F71F04795880F97FB991F61F0D0
S11326B09F3F79F087950895121613061406551F47
S11326C0F2CF4695F1DF08C0161617061806991FB3
S11326D0F1CF86957105610508940895E894BB27A8
S11326E066277727CB0197F908958ADF08F48FEFDF
S11326F008950BD0C0CFB1DF28F0B6DF18F09523D2
S113270009F0A2CFA7CF1124EACFC6DFA0F3959F8B
S1132710D1F3950F50E0551F629FF001729FBB27C4
S1132720F00DB11D639FAA27F00DB11DAA1F649F70
S11327306627B00DA11D661F829F2227B00DA11D23
S1132740621F739FB00DA11D621F839FA00D611DA9
S1132750221F749F3327A00D611D231F849F600DCA
S1132760211D822F762F6A2F11249F5750408AF003
S1132770E1F088234AF0EE0FFF1FBB1F661F771F8F
S1132780881F91505040A9F79E3F510570F05CCFCF
S1132790A6CF5F3FECF3983EDCF38695779567957B
S11327A0B795F795E7959F5FC1F7FE2B880F911DAD
S11327B09695879597F90895FA01EE0FFF1F3096C5
S11327C02105310599F16115710561F48038BFE384
S11327D09B0749F168949038810561F08038BFEF18
S11327E09B0741F0992342F5FF3FE105310521059F
S11327F011F1E8940894E795D901AA2329F4AB2FA1
S1132800BE2FF85FD0F310C0FF5F70F4A695E0F719
S1132810F73950F019F0FF3A38F49F779F930CD0B2
S11328200F9007FC905808953EF014CF60E070E0DC
S113283080E89FE308954FE79F775F934F933F931B
S11328402F939ED02F913F914F915F9152DF05C0FE
S113285019F40EF0F9CE42CFFDCE26DFC8F3963838
S1132860C0F707F80F92E8942BE33AEA48EB5FE7E6
S11328704EDF0F920F920F924DB75EB70F92C0D0FA
S1132880EAE5F1E016D04F915F91EF91FF91E59564
S1132890EE1FFF1F49F0FE57E0684427EE0F441F68
S11328A0FA95E1F74195550B32D00F9007FE26C0FB
S11328B00895DF93CF931F930F93FF92EF92DF92CC
S11328C07B018C01689405C0DA2EEF011EDFFE0146
S11328D0E894A5912591359145915591AEF3EF0179
S11328E062DDFE019701A801DA9479F7DF90EF9099
S11328F0FF900F911F91CF91DF9108959B01AC013F
S113290060E070E080E89FE3A5CD9ECEACC0CCDE55
S1132910E8F39923D9F3940F511DBBF39150504020
S113292094F059F0882332F0660F771F881F915076
S11329305040C1F79E3F510544F7880F911D96956D
S1132940879597F908955F3FACF0983E9CF0BB27BC
S1132950869577956795B79508F4B1609395C1F717
S1132960BB0F58F711F460FFE8CF6F5F7F4F8F4FB5
S11329709F4FE3CFB4CE0EF076C06CCE689464CE95
S113298093DEC8F39923D1F3C6F3DF93CF931F9358
S11329900F93FF92C92FDD2788232AF02197660F12
S11329A0771F881FDAF720E030E040E85FEB9FE311
S11329B0883920F0803E30F021968F77E3DCE2E81E
S11329C0F1E003C0DFDCEFEAF1E073DF8B01BE016D
S11329D0EC01FB2E6F5771097595771F880B990BC6
S11329E0D4DD28E132E741E35FE38FDEAF2D9801C8
S11329F0AE01FF900F911F91CF91DF91D4DC3BCEBC
S1132A00FA01DC01AA0FBB1F9B01AC01BF5728F4DC
S1132A1022273327442750781FC0B75188F4AB2F9F
S1132A200024469537952795011CA395D2F30020E1
S1132A3069F0220F331F441FB395DAF30DD0A1CCF4
S1132A4061307105A0E88A07B94630F49B01AC01F6
S1132A506627772788279078309621F02083318362
S1132A604283538308959F3F31F0915020F487951A
S1132A7077956795B795880F911D9695879597F9E2
S1132A80089597FB072E16F4009406D077FD08D01E
S1132A9013D007FC05D03EF4909581959F4F08957F
S1132AA0709561957F4F0895EE0FFF1F881F8BBFB0
S1132AB00790F691E02D1994AA1BBB1B51E107C0A6
S1132AC0AA1FBB1FA617B70710F0A61BB70B881FBA
S1132AD0991F5A95A9F780959095BC01CD01089549
S1132AE0FB01DC0102C005900D9241505040D8F723
S1092AF00895F894FFCFE5
S1132AF60000203F0000003FF20B0E02CD0A084002
S1132B06000000803E0244534F2053544152540067
S1132B166D732F64697600562F646976005670705B
S10D2B2600560066286B487A290067
S9030000FC
