:060000000C9431000C9489
:1000060000000C9400000C9400000C9400000C946A
:1000160000000C9400000C9400000C9400000C945A
:1000260000000C9400000C9400000C9400000C944A
:1000360000000C9400000C9400000C9400000C943A
:1000460000000C9400000C9400000C9400006C61FD
:10005600776469000600600154000000F894EE27FA
:10006600ECBBF1E0FBBFEBBFE5BF8DE0A2E0BB2739
:10007600ED938A95E9F780E094E0A0E6ED93019789
:10008600E9F7EAE5F0E085919591009761F0A59191
:10009600B59105901590BF01F00105900D9201975D
:1000A600E1F7FB01F0CFEFE5EDBFE4E0EEBFC0E620
:1000B600D1E00C94BD001A930A938D01D801EC91FE
:1000C600E03029F0AC9147D00F5F1F4FF7CF099171
:1000D60019910895EFEFE7BBC298C098A2E3B0E08C
:1000E60075D0A0E22FD024D0A8E22CD021D0A6E053
:1000F60029D01ED0ACE026D0A2E3B0E067D04FD026
:10010600A0E0B0E001D0089557D08D012C813D814B
:10011600022E032A11F4A05815D0E1E0F0E0E21710
:10012600F30719F4A02FA0540DD04BD026960895AE
:10013600C298A4E1B0E04AD0C29AA4E1B0E046D0A9
:10014600C29808951A931A2FE8B3E87FE8BBE12F07
:10015600E07F2AD00BC01A931A2FE8B3E97FE8BBD9
:10016600C09AE12FE07FE1601FD0E160E8BBE0DFED
:1001760019910895E1E0E2BBE0E0E1BBABDF8099D5
:100186000CC00DD0A4E0B0E0BFDFA0E6B1E093DF85
:10019600A8E8B3E11BD0A1E0D5DFF1CFFFCFE0E0C7
:1001A600F0E0FA93EA930895E8BBC2DFE12FEF701F
:1001B600A0E1EA02F00108953A932A931A930A936A
:1001C60008953B812A81198108810895109639F096
:1001D600A89584EF91E00197F1F71197C9F7089573
:00000001FF
