:040000000C943C0020
:100004000C9400000C9400000C9400000C9400006C
:100014000C9400000C9400000C9400000C9400005C
:100024000C9400000C9400000C9400000C9400004C
:100034000C9400000C9400000C9400000C9400003C
:100044000C9400000C9400000C9400000C9400002C
:1000540000003F0030005B004F0066006D007D0033
:1000640007007F00670002000400540013006001D1
:1000740056000000F894EE27ECBBF1E0FBBFEBBFA9
:10008400E5BF8DE0A2E0BB27ED938A95E9F780E018
:1000940094E0A0E6ED930197E9F7EAE6F0E08591B4
:1000A4009591009761F0A591B59105901590BF01C8
:1000B400F00105900D920197E1F7FB01F0CFEFE518
:1000C400EDBFE4E0EEBFC0E6D1E00C946900E0E0EF
:1000D400E5BBE1E4E4BBE0EAEBBBE9E0EABBE0E07A
:1000E400E2BBEFEFE1BBD89AE0916001E2BBCF99AC
:1000F4000EC0F20131962F01E9E0F0E0E415F505B8
:1001040014F44424552420D0A0E9B1E027D0CD999B
:1001140019C0A0E9B1E022D000240414050474F449
:10012400DB9AAE9A11D0A4EFB1E018D0DB98A4EF1B
:10013400B1E014D0F20131972F01EECFAE98E091E7
:100144006001E2BBD4CFFFCFF201A0E6B1E0EE0F35
:10015400FF1FAE0FBF1FEC91E2BB0895109639F05C
:10016400A89584EF91E00197F1F71197C9F70895E5
:00000001FF
