S02100006C65645F626C696E6B5F776974685F696E74657272757074732E7372656385
S11300000C9434000C943E000C943E000C943E007E
S11300100C943E000C943E000C943E000C943E0064
S11300200C943E000C943E000C943E000C943E0054
S11300300C943E000C943E000C9456000C943E002C
S11300400C943E000C943E000C943E000C943E0034
S11300500C943E000C943E000C943E000C943E0024
S11300600C943E000C943E0011241FBECFEFD8E048
S1130070DEBFCDBF0E9453000C947C000C940000A2
S1130080F89481E084B915B884B5826084BD85B5DF
S1130090856085BD8FEF87BDEEE6F0E080818260EC
S11300A08083789408950E944000FFCF1F920F929E
S11300B00FB60F9211242F938F939F9385B1816074
S11300C085B92FEF89E698E1215080409040E1F70F
S11300D000C0000015B82FEF89E698E12150804058
S11300E09040E1F700C000009F918F912F910F90F5
S10F00F00FBE0F901F901895F894FFCFDE
S9030000FC
