:100000000C942A000C943F000C943F000C943F0089
:100010000C943F000C943F000C943F000C943F0064
:100020000C943F000C943F000C943F000C943F0054
:100030000C943F000C943F000C943F000C943F0044
:100040000C943F000C943F000C943F000C943F0034
:100050000C943F0011241FBECFE5D4E0DEBFCDBF1E
:1000600010E0A0E6B0E0EAE2F1E002C005900D92F7
:10007000A836B107D9F70E946D000C9493000C9438
:10008000000087B3836087BB089580E005C0E0E08F
:10009000F0E03197F1F78F5F8E31C8F3089588B3A0
:1000A000826088BB88B38D7F88BB0895CF93DF9330
:1000B000D82FC0E00DC0DD2324F488B3816088BB55
:1000C00003C088B38E7F88BB0E944F00DD0FCF5FD7
:1000D000C83088F3DF91CF910895CF93DF93CDB7E8
:1000E000DEB728970FB6F894DEBF0FBECDBF88E00D
:1000F000E0E6F0E0DE01119601900D928A95E1F7BD
:100100000E94410010E00CC0E1E0F0E0EC0FFD1FA8
:10011000E10FF11D80810E9456000E9445001F5F83
:0A012000183090F3EFCFF894FFCFF2
:08012A0081C3E7FF7E3C1800D1
:00000001FF
