S01400004578706572696D656E742D312E7372656391
S113000033C000004BC0000037C0000035C0000002
S113001033C0000031C000002FC000002DC000001C
S11300202BC0000029C0000027C0000025C000002C
S113003023C0000021C000001FC000001DC000003C
S11300401BC0000019C0000017C0000015C000004C
S113005013C0000011C000000FC000000DC000005C
S11300600BC0000009C0000011241FBECFEFD8E070
S1130070DEBFCDBF1ED022C0C3CF569A5E9808956E
S113008052985A9A0895F894E89AE9E6F0E0808143
S11300908C7F8083789408955E9808951F920F92C0
S11300A00FB60F9211245E9A0F900FBE0F901F90FF
S11300B01895E3DFE5DFE7DFEFDFFECFF894FFCF4E
S9030000FC
