S01400004578706572696D656E742D322E7372656390
S113000033C0000039C0000037C0000035C0000014
S113001033C0000031C000002FC000002DC000001C
S11300202BC0000029C0000027C0000025C000002C
S113003023C0000021C000001FC000001DC000003C
S11300401BC0000019C0000017C0000015C000004C
S113005013C0000011C000000FC000000DC000005C
S11300600BC0000009C0000011241FBECFEFD8E070
S1130070DEBFCDBF28D041C0C3CF84B1836284B971
S1130080299A089552985A9A089589B182FB88272B
S113009080F991E08927089595B121E030E002C00C
S11300A0220F331F8A95E2F7292B25B9089595B1BC
S11300B021E030E002C0220F331F8A95E2F7209539
S11300C0292325B90895D9DFDDDF85E0E5DFDDDF0C
S11300D0882371F081E0EBDF80E0DEDF2FEF80E743
S11300E092E0215080409040E1F700C00000EFCF43
S11100F081E0D2DF80E0DBDFEACFF894FFCFBF
S9030000FC
