:040000000C942F002D
:100004000C9400000C9400000C9400000C9400006C
:100014000C9400000C9400000C9400000C9400005C
:100024000C9400000C9400000C9400000C9400004C
:100034000C9400000C9400000C9400000C9400003C
:100044000C9400000C9400000C9400000C9400002C
:1000540000000200040054000000F894EE27ECBBFA
:10006400F1E0FBBFEBBFE5BF8DE0A2E0BB27ED9362
:100074008A95E9F780E094E0A0E6ED930197E9F72B
:10008400E6E5F0E085919591009761F0A591B59131
:1000940005901590BF01F00105900D920197E1F7CD
:1000A400FB01F0CFEFE5EDBFE4E0EEBFC0E6D1E049
:1000B4000C945C00E0E0E8BBE8E0E7BBEAE6E3BF01
:1000C40044245524EFEFF0E0E415F5052CF012D0AC
:1000D400F20131962F01F6CFEFEFF0E02F0100246B
:1000E400041405042CF406D0F20131972F01F7CF44
:1000F400E7CFFFCF4CBEA4EFB1E000C0109639F0BB
:10010400A89584EF91E00197F1F71197C9F7089545
:00000001FF
