S01400004578706572696D656E742D332E737265638F
S113000033C000004CC000004AC0000048C00000DB
S113001046C0000044C0000042C0000040C00000D0
S11300203EC000003CC000003AC0000038C00000E0
S113003036C0000034C0000032C0000030C00000F0
S11300402EC000002CC000002AC0000028C0000000
S113005026C0000024C0000022C0000020C0000010
S11300601EC000001CC0000011241FBECFEFD8E04A
S1130070DEBFCDBF11E0A0E0B1E0E6EEFBE002C0E0
S113008005900D92A632B107D9F721E0A6E2B1E0BE
S113009001C01D92A233B207E1F7A5D0A2C5B0CF2B
S11300A040E051E061E081E093D141E151E061E061
S11300B082E08EC10895CF93DF93CDB7DEB7289742
S11300C00FB6F894DEBF0FBECDBFFE0139969E0178
S11300D02F5F3F4F942F9170905D46959293E21756
S11300E0F307C1F7AE014F5F5F4F72D128960FB689
S11300F0F894DEBF0FBECDBFDF91CF910895DF929C
S1130100EF92FF920F931F93CF93DF93CDB7DEB798
S11301102A970FB6F894DEBF0FBECDBFD82E162F88
S11301201F924F938AE191E09F938F93CE010196A2
S11301307C019F938F937DD203E0010F0F900F906A
S11301400F900F900F900F90F70141917F01612F55
S11301508D2D15D11F5F1013F7CF2A960FB6F89483
S1130160DEBF0FBECDBFDF91CF911F910F91FF90E6
S1130170EF90DF90089550E023E030E044C108950B
S11301800F931F93CF93DF93CDB7DEB72A970FB6A4
S1130190F894DEBF0FBECDBF082F162F1F924F93CA
S11301A08FE191E09F938F93CE0101969F938F935C
S11301B040D24981612F802FE2D061E0610F4A81F2
S11301C0802FDDD00F900F900F900F900F900F9015
S11301D02A960FB6F894DEBF0FBECDBFDF91CF9144
S11301E01F910F9108951FD097D0C6D059DFC0E05A
S11301F04C2F63E081E0C4DF4C2F68E081E0BBDF7B
S11302004C2F6EE081E07BDF4C2F69E082E053DF0E
S1130210CF5F2FEF89E698E1215080409040E1F7CD
S113022000C00000E5CF84B1876084B98AB1806FD3
S11302308AB985B1887F85B98BB18F708BB90895E0
S11302408FE99FE00197F1F700C0000028982A98F1
S113025080E38BB9299AEFE1FEE43197F1F700C00E
S113026000002998EFE9FFE03197F1F700C00000A2
S113027028982A988BB9299AEFE1FEE43197F1F78F
S113028000C000002998EFE9FFE03197F1F700C0C2
S1130290000028982A988BB9299A8FE19EE4019747
S11302A0F1F700C000002998EFE9FFE03197F1F77A
S11302B000C0000028982A9880E28BB9299A8FE11F
S11302C09EE40197F1F700C00000299808959BB1BE
S11302D09F709BB99BB1282F207F922B9BB92898A4
S11302E02A98299AEFE1FEE43197F1F700C0000063
S11302F029989BB19F709BB99BB18295807F892B74
S11303008BB928982A98299A8FE19EE40197F1F7EE
S113031000C000002998089593DF8FE99FE00197BA
S1130320F1F700C0000088E2D2DF81E0D0DF86E090
S1130330CEDF8EE0CCDF80E8CACF089580E8C7CF57
S11303400895823069F018F4813031F008958330D3
S113035059F0843069F008958FE7860FB8CF089577
S11303608FEB860FB4CF089583E9860FB0CF08953D
S113037083ED860FACCF089581E0A9CF0895CF9384
S1130380C42FDFDF8BB18F708BB98BB19C2F907F23
S1130390892B8BB9289A2A98299A8FE19EE4019790
S11303A0F1F700C0000029988BB18F708BB98BB125
S11303B0C295C07FC82BCBB9289A2A98299A8FE175
S11303C09EE40197F1F700C000002998CF910895A9
S11303D00F931F93CF93DF93D82FC62FFA01408139
S11303E0442361F08F010F5F1F4F6C2F8D2FC7DFE8
S11303F0CF5FF80141918F014111F7CFDF91CF9188
S11304001F910F910895EF92FF920F931F93CF9333
S1130410DF93D82FC62F7A01890193DFFF204CF494
S1130420F194E194F10844E251E06C2F8D2FD0DF78
S1130430CF5FDD2311F0C11102C080DF03C06C2F38
S11304408D2F7FDF0530110509F0ADC0C70160E1D4
S113045077E2B9D0AB01405D5F4F509327014093E1
S113046026016C2F8D2F8BDFCF5FC70168EE73E001
S1130470AAD0AB0170932901609328019B01ADECD4
S1130480BCECB4D096958795969587959695879567
S11304909C01220F331F880F991F880F991F880F03
S11304A0991F820F931F481B590B405D5F4F509358
S11304B03101409330016C2F8D2F61DFCF5F03C07A
S11304C00330110559F5C70164E670E07CD0AB0137
S11304D070932901609328019B01ADECBCEC86D09C
S11304E09695879596958795969587959C01220F65
S11304F0331F880F991F880F991F880F991F820F28
S1130500931F481B590B405D5F4F50932D0140933F
S11305102C016C2F8D2F33DFCF5F04C00230110507
S113052009F046C0C7016AE070E04DD0AB0170939A
S11305302901609328019B01ADECBCEC57D0969542
S1130540879596958795969587959C01220F331FDD
S1130550880F991F880F991F880F991F820F931F67
S1130560481B590B405D5F4F50932B0140932A0168
S11305706C2F8D2F04DFCF5FC7016AE070E023D0BA
S1130580AC01405D5F4F50932F0140932E016C2FBF
S11305908D2FF5DECF5F0630110574F045E46C2F26
S11305A08D2FEDDE09C00430110509F089CF5DCF30
S11305B00130110581F7E0CFDF91CF911F910F91A9
S11305C0FF90EF90089597FB072E16F4009406D041
S11305D077FD08D01AD007FC05D03EF4909581959C
S11305E09F4F0895709561957F4F0895A29FB00124
S11305F0B39FC001A39F700D811D1124911DB29F53
S1130600700D811D1124911D0895AA1BBB1B51E17E
S113061007C0AA1FBB1FA617B70710F0A61BB70B6E
S1130620881F991F5A95A9F780959095BC01CD0113
S11306300895AEE0B0E0EEE1F3E0AAC20D891E89B0
S113064086E08C831A8309838FEF9FE79E838D83D3
S1130650AE01475E5F4F6F89788DCE01019608D059
S1130660EF81F885E00FF11F10822E96E4E0ACC212
S1130670ABE0B0E0EDE3F3E07DC26C017B018A0105
S1130680FC0117821682838181FFBFC1CE010196CE
S11306903C01F6019381F70193FD859193FF8191CC
S11306A07F01882309F4ADC1853239F493FD859126
S11306B093FF81917F01853221F4B60190E0C0D18E
S11306C0E8CF912C212C312CFFE1F315D8F08B329B
S11306D079F038F4803279F08332A1F4232D20614B
S11306E01DC08D3261F0803369F4232D216016C062
S11306F0832D8260382EE32DE4603E2E2AC0F32D34
S1130700F8601DC037FC2DC020ED280F2A3040F0C2
S11307108E32B9F436FC75C1232D2064322E19C0F3
S113072036FE06C08AE0989E200D1124922E11C038
S1130730EAE02E9E200D1124222EF32DF0623F2E8E
S113074008C08C3621F4832D8068382E02C0883688
S113075041F4F70193FD859193FF81917F0181110C
S1130760B3CF982F9F7D9554933028F40C5F1F4F7F
S11307709FE399830DC0833631F0833771F083355D
S113078009F055C020C0F801808189830E5F1F4F96
S113079088248394912C530112C02801F2E04F0E57
S11307A0511CF801A080B18036FE03C0692D70E0B1
S11307B002C06FEF7FEFC50138D14C018201F32DE8
S11307C0FF773F2E15C0280122E0420E511CF8018C
S11307D0A080B18036FE03C0692D70E002C06FEFC7
S11307E07FEFC50117D14C01F32DF0683F2E820134
S11307F033FC19C0822D90E088169906A0F4B60146
S113080080E290E01DD12A94F5CFF50137FC859163
S113081037FE81915F01B60190E012D121102A9434
S113082021E0821A91088114910479F7E1C0843699
S113083011F0893639F5F80137FE07C060817181FE
S1130840828193810C5F1F4F08C060817181072EE4
S1130850000C880B990B0E5F1F4FF32DFF763F2E74
S113086097FF09C090958095709561957F4F8F4F44
S11308709F4FF0683F2E2AE030E0A3011DD1882E5F
S1130880861844C0853731F4232D2F7EB22E2AE0FA
S113089030E025C0932D997FB92E8F36C1F018F41E
S11308A0883579F0AEC0803719F0883721F0A9C0B7
S11308B0E92FE061BE2EB4FE0DC0FB2DF460BF2E07
S11308C009C034FE0AC0292F2660B22E06C028E0D3
S11308D030E005C020E130E002C020E132E0F80160
S11308E0B7FE07C060817181828193810C5F1F4FC5
S11308F006C06081718180E090E00E5F1F4FA3010C
S1130900DBD0882E8618FB2DFF773F2E36FE0DC0D8
S1130910232D2E7FA22E891458F434FE0BC032FCF2
S113092009C0832D8E7EA82E05C0B82CA32C03C02D
S1130930B82C01C0B92CA4FE0FC0FE01E80DF11DB6
S11309408081803321F49A2D997EA92E09C0A2FEBC
S113095006C0B394B39404C08A2D867809F0B39486
S1130960A3FC10C0A0FE06C0B21480F4280C922C84
S11309709B180DC0B21458F4B60180E290E060D028
S1130980B394F8CFB21418F42B1802C0982C212C6D
S1130990A4FE0FC0B60180E390E052D0A2FE16C0C0
S11309A0A1FC03C088E790E002C088E590E0B601AE
S11309B00CC08A2D867851F0A1FE02C08BE201C0E2
S11309C080E2A7FC8DE2B60190E03AD0891430F4BD
S11309D0B60180E390E034D09A94F8CF8A94F3017E
S11309E0E80DF11D8081B60190E02AD08110F6CF88
S11309F0222009F44ECEB60180E290E021D02A9460
S1130A00F7CFF6018681978102C08FEF9FEF2B9677
S1130A10E2E1CCC0FC010590615070400110D8F7B0
S1130A20809590958E0F9F1F0895FC016150704032
S1130A3001900110D8F7809590958E0F9F1F08950F
S1130A400F931F93CF93DF93FB01238121FD03C0F9
S1130A508FEF9FEF2CC022FF16C04681578124815F
S1130A6035814217530744F4A081B1819D012F5F62
S1130A703F4F318320838C93268137812F5F3F4FF3
S1130A803783268314C08B01EC01FB010084F185BC
S1130A90E02D0995892BE1F6D80116968D919C914C
S1130AA01797019617969C938E931697CE01DF9114
S1130AB0CF911F910F910895FA01AA27283051F17F
S1130AC0203181F1E8946F936E7F6E5F7F4F8F4F7B
S1130AD09F4FAF4FB1E03ED0B4E03CD0670F781FDA
S1130AE0891F9A1FA11D680F791F8A1F911DA11DBF
S1130AF06A0F711D811D911DA11D20D009F46894F8
S1130B003F912AE0269F11243019305D3193DEF69F
S1130B10CF010895462F4770405D4193B3E00FD055
S1130B20C9F7F6CF462F4F70405D4A3318F0495D40
S1130B3031FD4052419302D0A9F7EACFB4E0A69523
S1130B409795879577956795BA95C9F70097610545
S1130B50710508959B01AC010A2E0694579547959B
S1130B6037952795BA95C9F7620F731F841F951F90
S1130B70A01D08952F923F924F925F926F927F92A1
S1130B808F929F92AF92BF92CF92DF92EF92FF9299
S1130B900F931F93CF93DF93CDB7DEB7CA1BDB0B45
S1130BA00FB6F894DEBF0FBECDBF09942A883988EA
S1130BB048885F846E847D848C849B84AA84B984F1
S1130BC0C884DF80EE80FD800C811B81AA81B981FD
S1130BD0CE0FD11D0FB6F894DEBF0FBECDBFED0111
S1090BE00895F894FFCF14
S1130BE6483A202020443A202020204F3A20202032
S1130BF60042696E6172793A20002530336F002510
S1090C06303278002D00DD
S9030000FC
