:100000000C942A000C943F000C943F000C943F0089
:100010000C943F000C943F000C943F000C943F0064
:100020000C943F000C943F000C943F000C943F0054
:100030000C943F000C943F000C943F000C943F0044
:100040000C943F000C943F000C943F000C943F0034
:100050000C943F0011241FBECFE5D4E0DEBFCDBF1E
:1000600010E0A0E6B0E0E8E4F1E002C005900D92F7
:10007000A836B107D9F70E947C000C94A2000C941A
:10008000000087B3876087BB089588B3826088BB10
:1000900088B38D7F88BB089588B3846088BB81E076
:1000A000982F9A95F1F798B39B7F98BB8A95F1F7B3
:1000B0000895CF93DF93D82FC0E00DC0DD2324F443
:1000C00088B3816088BB03C088B38E7F88BB0E94E1
:1000D0004500DD0FCF5FC83088F30E944C00DF91F0
:1000E000CF91089580E005C0E0E0F0E03197F1F7AE
:1000F0008F5F8E31C8F30895CF93DF93CDB7DEB70E
:1001000028970FB6F894DEBF0FBECDBF88E0E0E6BB
:10011000F0E0DE01119601900D928A95E1F70E94C0
:10012000410010E00CC0E1E0F0E0EC0FFD1FE10F3A
:10013000F11D80810E9459000E9472001F5F1830DB
:0801400090F3EFCFF894FFCF1C
:0801480081C3E7FF7E3C1800B3
:00000001FF
